:020000040800F2
:10000000F00C002035020008392500086F23000895
:1000100035250008D51E0008473100080000000003
:10002000000000000000000000000000192C000883
:100030009121000800000000FD2900082D2D000876
:100040004F0200084F0200084F0200084F0200084C
:100050004F0200084F0200084F0200084F0200083C
:100060004F0200084F0200084F0200084F0200082C
:100070004F0200084F0200084F0200084F0200081C
:100080004F0200084F0200084F0200084F0200080C
:100090004F0200084F0200084F0200084F020008FC
:1000A0004F0200084F0200084F0200084F020008EC
:1000B000912D00084F0200084F0200084F0200086F
:1000C0004F0200084F0200084F0200084F020008CC
:1000D0004F0200082D2E0008F92E00084F020008DC
:1000E0004F0200084F0200084F02000800F002F81B
:1000F00000F090F80AA090E8000C82448344AAF132
:100100000107DA4501D100F085F8AFF2090EBAE82F
:100110000F0013F0010F18BFFB1A43F0010318473B
:100120006C4B00008C4B0000103A24BF78C878C19B
:10013000FAD8520724BF30C830C144BF04680C60ED
:10014000704700000023002400250026103A28BF35
:1001500078C1FBD8520728BF30C148BF0B60704739
:100160006E2900F03983702900F09984662903F024
:100170009385652903F09085672903F08D856129B2
:1001800003F08C8503681B0A28BF41F080016929B0
:1001900000F0DE80642900F0DB80752900F0D88053
:1001A0006F2900F02684782900F06584E92900F0A1
:1001B000C183E42900F0BE83F52900F0BB83EF2959
:1001C00000F02384F82900F064840368DB0928BF69
:1001D00041F08001632900F04283732900F04783D6
:1001E000E32901F04780F32901F04C80002070479B
:1001F0001FB501F099F804000020002103F036FD3E
:10020000401C60600020002103F01AFDE0601FBD6B
:1002100010B510BD01F05BF81146FFF7E9FF03F0E0
:100220007BFB01F037F903B4FFF7F2FF03BC01F0E9
:100230003BF900000948804709480047FEE7FEE710
:10024000FEE7FEE7FEE7FEE7FEE7FEE7FEE7FEE786
:1002500004480549054A064B70470000312D000847
:10026000ED000008F0060020F00C0020F00800204F
:10027000F00800201CB50C46064B7B4469460090F4
:10028000204600F0C2FA04460020694600F0D0FA89
:1002900020461CBDB30500000FB41CB5084B06AAD0
:1002A0007B4469460090059800F0AFFA04460020B0
:1002B000694600F0BDFA20461CBC5DF814FB000046
:1002C0008D0500000FB47CB50C0009AA009001D088
:1002D0002044401E084B7B4469460190089800F07A
:1002E00094FA05461CB10020694600F0A1FA2846A0
:1002F0007CBC5DF814FB00006105000070B50C4685
:100300000546012A05D02878800600D5EA69002331
:1003100002E0012305E05B1C934202D2E05C00286E
:10032000F9D1A869E618C01AA861286A1844286299
:10033000284600F0BFF904E0D5E9012114F8010BCB
:100340009047B442F8D3284600F0CAF970BD0000C7
:100350002DE9F0410646002410687529314616A59E
:1003600010D000F0CEF9002802DA404213A507E0D1
:1003700031688A0701D512A502E0490704D511A505
:10038000012401E000F0C6F900210A2206F1240749
:1003900009E0B0FBF2FCB0FBF2F302FB1C003030D2
:1003A00078541846491C0028F3D123462A46304683
:1003B000BDE8F04100F0B7B9000000002D000000DA
:1003C0002B000000200000002DE9F05F8946044664
:1003D0004FF0000ADFF874B1FB44C0F820A02046BB
:1003E000E1688847002874D0252806D0D4E9012187
:1003F0009047206A401C2062F1E700265F462046B5
:10040000E16888472028054607DB312D05D2781999
:1004100010F8200C08B10643F1E7B00701D526F02B
:100420000406C4F81CA00027C4F818A02A2D09D07F
:10043000284602F09EFE38B304EB8708303DC8F82A
:10044000185019E059F8041B204604EB870291610B
:10045000E1688847012F054618D1E069002820DAB5
:1004600026F020061DE0D8F8180000EB800005EB10
:1004700040003038C8F818002046E1688847054633
:1004800002F077FE0028EED1012F0AD02E2D08D1E0
:100490002046E16888477F1C0546022F46F020066B
:1004A000C4DBA069002803DA404246F00106A061DF
:1004B000F00701D026F010066C2D0BD0682D09D066
:1004C0004C2D39D06A2D35D0742D35D07A2D33D0BE
:1004D00016E038E0E1682F4620468847B8420546D6
:1004E00009D16C2F26D04FF48060E1680643204686
:1004F0008847054604E06C2F1AD04FF480700643FD
:100500000DB3A5F14100192802D8203546F4006644
:100510004A462946204626604E46FFF721FE80B116
:1005200001280BD0F61D26F0070000F1080956E758
:100530004020E4E78020D8E70020D6E706F1040950
:100540004DE7284652E7206ABDE8F09F9346000039
:10055000401ECAB210F8011F8A4202D00029F9D108
:100560000020704730B505460B462A4613F8014B6C
:1005700012F8010B08B1A042F8D01CB1002802D03B
:100580006D1CF1E7284630BD10B5431C02E010F8A1
:10059000011B71B18107FAD14FF0013202C88C1AE8
:1005A0008C4314EAC211F9D0C01A0A0603D0C01E47
:1005B00010BDC01A10BD0A0401D0801E10BD090272
:1005C000FCD0401E10BD4FF000020429C0F0128084
:1005D00010F0030C00F01B80CCF1040CBCF1020FF6
:1005E00018BF00F8012BA8BF20F8022BA1EB0C01CB
:1005F00000F00DB85FEAC17C24BF00F8012B00F8C1
:10060000012B48BF00F8012B70474FF0000200B5E6
:10061000134694469646203922BFA0E80C50A0E825
:100620000C50B1F12001BFF4F7AF090728BFA0E8D3
:100630000C5048BF0CC05DF804EB890028BF40F89F
:10064000042B08BF704748BF20F8022B11F0804FE1
:1006500018BF00F8012B704710B5044610F0030FC7
:1006600008BF11F0030F40F015804FF0013E121F3C
:10067000C0F20E8051F8043BA3EB0E0C2CEA030CE5
:100680001CEACE1C08BF40F8043BF0D0A1F10401E5
:1006900002F10402521E08DB11F8013B002B00F8A6
:1006A000013BF7D11146FFF78EFF204610BD704782
:1006B0007047704770B5044685690068C10601D56A
:1006C000302600E02026C00707D070BDD4E9012104
:1006D00030469047206A401C20626D1EF6D570BDE2
:1006E00070B5044685690078C00707D170BDD4E9AC
:1006F000012120209047206A401C20626D1EF6D503
:1007000070BD09684A0501D540B27047C905FCD5DE
:1007100000B2704709684A0501D5C0B27047C905E3
:10072000FCD580B270472DE9F0470D4699469246B8
:10073000044600F124080168880604D5E06921F028
:100740001001216000E00120A84201DD471B00E00C
:100750000027A1697A1902EB0900081AA061207824
:10076000C00602D42046FFF7A5FF002608E0D4E922
:1007700001211AF806009047206A401C761C20626E
:100780004E45F4DB2078C0060AD52046FFF792FFDD
:1007900006E0D4E9012130209047206A401C206205
:1007A000381EA7F10107F4DC07E0D4E9012118F8AD
:1007B00005009047206A401C2062281EA5F1010513
:1007C000F3DC2046FFF78CFF2078000602D50220DC
:1007D000BDE8F0870120FBE711680268006A530555
:1007E00001D508700AE0D30501D5088006E013069C
:1007F00003D5C217C1E9000200E00860012070477C
:1008000001694A1C02610878704700B58FB0CDE9D4
:1008100001310021059105497944CDE903101146C4
:100820006846FFF7D1FD0FB000BD0000E5FFFFFFF8
:100830000A6802F8010B0A607047D1E900239A4266
:1008400002D2531C0B601070704710B5436913B18E
:10085000AFF3008001E0FFF751FD012010BD1278D9
:1008600000F124010A7000224A700122EDE71168AC
:100870004FF0FF32E9E700002DE9FF5F15468A4699
:100880000446DFF8AC80F8440027D8E900103E4663
:10089000CDE9001010E03AF816106A4602A800F000
:1008A000F5FC411C07D02178890603D5E269391887
:1008B00091420DD80744761C2078800602D5E06965
:1008C000B84205DDAE42E6DB3AF816000028E2D178
:1008D000A069C01BA0612046FFF7ECFED8E900101C
:1008E000CDE90010002017E03AF818106A4602A877
:1008F00000F0CCFCB0F1FF3F81460BD000250DF19C
:10090000080B05E0D4E901211BF8050090476D1C98
:100910004D45F7D308F10100B0428046E4DB206A80
:10092000384420622046FFF7DBFEBDE8FF9F000051
:10093000F64100002DE9F0418046D21D22F0070269
:100940000025D2E90002F52915A614D0011E72F186
:10095000000106DA0023D0EB030063EB020211A6CC
:1009600008E0D8F800108B0701D50FA602E0490770
:1009700001D50EA601251146002408F1240704E044
:1009800000F09CF830323A55641C50EA0102F7D16D
:100990002B46324621464046BDE8F041FFF7C3BE34
:1009A000000000002D0000002B00000020000000CF
:1009B00030B4002100F1240408E002F00705D20859
:1009C000303542EA4372DB086554491C52EA03059C
:1009D000F3D10468002310A2250707D5A40600D48C
:1009E00021B1C46901230DA2641EC46130BCFFF7AC
:1009F0009ABE10B5044621461068FFF78BFE0246EA
:100A00002046BDE810400023D2E7D21D22F00701A6
:100A1000D1E90023CCE70000000000003000000016
:100A2000F0B40D460188090502D5214C7C4402E052
:100A30001F4C7C440E34002100F1240608E002F033
:100A40000F071209E75D42EA03721B097754491C3C
:100A500052EA0307F3D102780023120704D5702D60
:100A600006D009B1022311342246F0BCFFF75BBE69
:100A700001231034F8E770B504460D46214610688E
:100A8000FFF748FE024629462046BDE87040002395
:100A9000C6E7D21D22F00703D3E90023C0E70368AD
:100AA000126843F0200303600823C3610023B7E703
:100AB00058400000004870478C06002030B5B0F167
:100AC0000A024FEA900E71F100034EEA817EB0EB0C
:100AD0000E0061EB91014FEA101E4EEA017E10EB11
:100AE0000E0041EB11114FEA102E4EEA016E10EB91
:100AF0000E0041EB11214FEA104E4EEA014E10EB71
:100B00000E0041EB1141401841F100014FEAD000C5
:100B100040EA41704FEAD10110EB80054FEA8104B1
:100B200044EA907444EB01046D1944EB0404521B35
:100B3000A3414FF0000348BF0A3200D530BD401C2E
:100B400041F1000130BD70472DE9FF4F0C461E46B4
:100B50004FF0FF378BB0D2E90001DDF860800A90DA
:100B60008A46C1F30A5505B93D46002108464FF0B3
:100B70000000BAF1000F00F4400005DA00EB80003D
:100B80004FF4400101EA50004FEA9059B9F1010FCA
:100B900000DDB9460A9850EA4A000ED044F61050DB
:100BA000A5F2FF3545432F14B8F1000F1ED0754252
:100BB000291E1EDDC9F100021CE0B8F1010F4FF043
:100BC000000001D0302103E0F24305E02154401C35
:100BD000B042FBDB30460022002121540B99C1F8C2
:100BE0000880C1E900200FB0BDE8F08FBD1B6D1C6F
:100BF000DEE74A4600DA694206A800F0D9FB06ABF8
:100C000093E8070003AB83E8070050460A9900F019
:100C100091FC8DE80700A0F500501F380090039864
:100C2000002D0ADD42F21F014A460844002303A9B1
:100C30000390684600F0FAFE09E0A0F500504A462D
:100C40001F38002303A90390684600F004FF8DE8D5
:100C500007000004000C03D04FF0FF30410800E013
:100C60001046B8F1000F03D00022009215461EE096
:100C7000751E05D4FFF722FF303262556D1EF9D57F
:100C8000B3460122084302D000227F1C04E02078F2
:100C9000302801D100227F1E002A099784D01DE050
:100CA000112D07DAFFF70AFF303262556D1C50EA4A
:100CB0000102F5D1084302D00098C8B10EE000212E
:100CC000681E05E0235C625C63542254401E491C8C
:100CD0008142F7DBAB46A81B401E0990002004F8B8
:100CE0000B000B98099AC0F80880C0E9002B7AE73E
:100CF00011264FF0000857E72DE9F04F88460446CB
:100D0000D21D22F0070191B0D1E90001CDE90A011D
:100D100002F01BFA02460B98C00F01D02D2007E00D
:100D20002068810701D52B2002E0202101EAC000C4
:100D3000032A099001D0072A05DB034641462046D5
:100D400000F0F6FA0BE12078800601D5E06900E0BA
:100D50000620B8F1650F814606D0B8F1660F18D0AD
:100D6000B8F1670F70D131E00020B9F1110F009098
:100D700001DB112301E009F101030AAA01A90CA872
:100D8000FFF7E2FEDDE90C70002609F1010583465C
:100D900047E001204B4600904FF000470AAA01A906
:100DA0000CA8FFF7D1FEDDE90DB00C995D460026D9
:100DB00010B909F101000D18B9EB050003D4C0F119
:100DC000FF3609F10105A5EB09002BE0B9F1010F90
:100DD00001DA4FF001090020B9F1110F00904846E7
:100DE00001DD112300E003460AAA01A90CA8FFF7C0
:100DF000ABFEDDE90C704D460026834620780007E7
:100E00000AD4AB4500DA5D4601A8012D04DD411985
:100E100011F8011C302907D04F4502DA17F1040FF1
:100E200004DA012082460FE06D1EEEE7002F02DC9F
:100E3000ED1B3E4403E0781CA84200DD7D1CB81B7E
:100E400000F1010A4FF000472078000703D4AA45BB
:100E500001DB4FF0FF3A0021B7F1004F0DF14308DD
:100E60008DF8431024D002202B23002F01DA7F427B
:100E70002D230A21021EA0F1010000DC5FB197FBC7
:100E8000F1FC97FBF1F201FB1C7C17460CF1300CD6
:100E900008F801CDEEE7A8F10100037021880905EB
:100EA00001D5452100E06521A0F1010800F8011CF1
:100EB00009980FA9A1EB0807FF1D00B101204119F6
:100EC00001EBEA70A1693844081A401EA06120783D
:100ED000C00602D42046FFF7EDFB099828B1D4E9FB
:100EE00001219047206A401C20622078C00622D54C
:100EF0002046FFF7DFFB1EE0002E04DBB34502DDDA
:100F000001A8805D00E03020D4E901219047206AEB
:100F1000401C2062761CAAF101005FEA000A0AD197
:100F200000F002FAC0680168405CD4E901219047F2
:100F3000206A401C2062281EA5F10105DCDC07E0C8
:100F4000D4E9012118F8010B9047206A401C206267
:100F5000381EA7F10107F3DC2046FFF7C1FB032091
:100F600011B041E62DE9F04F04460D46D21D22F0A6
:100F7000070089B0D0E900974846394602F0E5F805
:100F80000246F80F01D02D2307E02068810701D524
:100F90002B2302E0202101EAC0038DF820300BB1A1
:100FA000012000E00020032A824601D0072A04DB4A
:100FB0002946204600F0BCF93FE12078800601D4A4
:100FC0000D2500E0E569C7F30A560D2D49DA002129
:100FD0004FEA175B08464FF00000002F00F4400076
:100FE00007DA00EB80004FF4400100EBD07001EA1B
:100FF00060008115012901DD4FF0FF3100224FEA29
:10100000850CBCF1180F06D31346ACF118004FF055
:101010008052C24003E04FF4801323FA0CF30CF12A
:101020000C0CBCF1200F04D3ACF1200C09FA0CF02D
:1010300001E007FA0CF000294FF0004801DD18B973
:101040000FE00ED140450CD319EB02095F4121B9E5
:10105000404502D19F4329EA0209BBEB175F00D04C
:10106000761C2088000502D57B48784402E07A4847
:101070007844193808AA302302F80A30037C0AF1B0
:101080000101002E0AF1020A53546A4602DC4FF0B5
:10109000300101E04FF031014FF001088DF80010F0
:1010A00002D0A6F2FF3603E059EA470100D06B4EAA
:1010B000002D02DC2178090704D54FF002082E210B
:1010C0008DF80110C44600210BE0C7F303433F0134
:1010D000C35C491C6D1E02F80830052908F101089F
:1010E00001DA002DF1DC00210CE000EB1973491C42
:1010F0001B786D1E082902F808304FEA091908F11B
:10110000010801DA002DF0DC21688B0602D516E01B
:10111000A8F10108E04505DD02EB080313F8013CE6
:10112000302BF5D0B8F1000F09DD02EB080313F8FE
:10113000013C2E2B03D1090701D4A8F10108002D91
:1011400005DD3E2102F808106D1E08F10108407C03
:10115000002E02F8080008F1010804DA2D2076427A
:1011600002F8080002E02B2002F808000A214FF4E0
:101170007A70864208F101080BDB96FBF0F33033FE
:1011800002F8083096FBF0F308F1010800FB136643
:1011900001E0642E0CDB642096FBF0F3303302F8A0
:1011A000083096FBF0F308F1010800FB136601E03C
:1011B0000A2E06DB96FBF1F0303002F8080008F149
:1011C000010896FBF1F001FB1060303002F80800D6
:1011D000A16908F1010808EB050202EB0A00081AF0
:1011E000A0612078C00602D42046FFF763FA216A86
:1011F00008AE01EB0A00206204E0D4E9012116F8F0
:10120000010B9047BAF1010AF7D22078C00602D547
:101210002046FFF74FFA6E4609E016F8010B3E280C
:101220000FD0D4E901219047206A401C2062B8F118
:101230000108F2D22046FFF753FA09B00320BDE8B7
:10124000F08F206A2844206203E0D4E90121302095
:1012500090476D1EEBD3F8E7553A000002FCFFFF04
:1012600010B5436913B1AFF3008001E0FFF704FB51
:10127000012010BD128800F1240182840022C28462
:101280000122EDE711684FF0FF32E9E770B516462D
:101290000C46054600F040F8036893F80101012868
:1012A00006D0FF2C0FD8185D68B101202C7070BDDE
:1012B000D3F807013246214603F2071303442846B8
:1012C000BDE8704018474FF0FF3070BD704775465D
:1012D000FFF7F0FBAE4605006946534620F00700D5
:1012E000854618B020B5FEF7B3FFBDE820404FF0AB
:1012F00000064FF000074FF000084FF0000B21F000
:101300000701AC46ACE8C009ACE8C009ACE8C009CC
:10131000ACE8C0098D46704710B500F005F8001D17
:1013200010BD00BF4929000000487047AC060020EE
:101330002DE9F0411F46044603260168072A01F4FF
:10134000006004DB08B116A505E016A503E008B1AE
:1013500015A500E015A521F010002060A069C01EB1
:10136000A0610FB1401EA0612046FFF7A3F94FB165
:10137000D4E9012138469047206A401C2062C01CF5
:10138000206206E0206AFAE7D4E9012115F8010B92
:101390009047761EF8D22046FFF7A2F9BDE8F0810B
:1013A0004E414E006E616E00494E4600696E660009
:1013B0002DE9F047814616468AB0354878440DC875
:1013C0008DE80D0032487844801C03AC0DC884E8D9
:1013D0000D0041F69B300844372190FBF1F290FB61
:1013E000F1F5A5F1800501FB12041B3C02D5644216
:1013F000012000E00020DFF898A080460027FA4492
:10140000AAF1BE0A0EE0E0070AD03246684607EBB2
:10141000470101230AEB810100F01DFB8DE8070065
:1014200064107F1C002CEED1194F7F44AE3F19E0B1
:10143000E80715D007EB04100DF1180A90E80E002C
:101440008AE80E00C068F04201D19819089032462F
:10145000012306A903A800F0FEFA03AB83E8070006
:101460006D10641C002DE3D14FF001033246694634
:10147000B8F1000F03A802D000F0D8FA01E000F0A4
:10148000EAFAC9E90001C9F808200AB0BDE8F08706
:101490009437000010B50446AFF300802046BDE845
:1014A0001040FEF7C0BE000001491820ABBEFEE7A9
:1014B000260002004FF0013C50F8042B51F8043B89
:1014C0009A4221D1A2EB0C03934313EACC1317D118
:1014D00050F8042B51F8043B9A4215D1A2EB0C03AF
:1014E000934313EACC130BD150F8042B51F8043B6F
:1014F0009A4209D1A2EB0C03934313EACC13DBD03D
:101500004FF00000704700BFD01A01BAB1FA81F164
:1015100001F0180122FA01F0CB40C1F12001DBB249
:10152000C0B2C01A2CFA01F3D11A914311EAC311C7
:10153000E6D170475FEA400C08BF91F0000F4FEA18
:101540008C234FEAC12243EA51514FEA1C5018BF85
:1015500000F5F0404FEA300018BF41F000415FEA6B
:101560006C5C00F02980BCF1FF3F08BF40F0804078
:101570007047130C06BF12044FF0100C4FF0000C14
:10158000130E04BF12020CF1080C130F04BF12015A
:101590000CF1040C930F04BF92000CF1020CD30F5A
:1015A00004BF52000CF1010C11464FF00002A0F1F3
:1015B0001F00A0EB0C00704711F0004F08BF7047F0
:1015C00031F000413FF4D5AF0B0C06BF09044FF0DA
:1015D000100C4FF0000C0B0E04BF09020CF1080CAC
:1015E0000B0F04BF09010CF1040C8B0F04BF890021
:1015F0000CF1020CCB0F04BF49000CF1010CCCF133
:101600002003A0EB0C0022FA03F302FA0CF241EAE9
:10161000030100F10100704720F07F4C80EA0300D5
:1016200023F07F47ACEB070303F57C5300F0004049
:1016300003F1FF032DE980494FEA154B09B44FEA46
:10164000144325EA0B4E24EA03480FF2042606EB66
:10165000132749083E785FEA320203FB0667C7F5A5
:10166000000707FB06F64FEA54374FEAD64606F165
:10167000020607FB066CCCF1005C4FEA1C472CEA23
:10168000074C07FB06F40CFB06F504EB15464FEA86
:10169000961634BF00204FF000404FEAD13706FBCA
:1016A00007FC4FEA1C4C0CFB0BF7D21B03FB0CF79F
:1016B00061EB07010CFB0EF7B0EB074072EB174232
:1016C0000CFB08F734BFA2EB0742B2EB074261EB19
:1016D00017414FEA0C444FEA910706FB07FC4FEA1B
:1016E0001C4C0CFB0BF7B0EBC74072EB573203FB03
:1016F0000CF734BFA2EBC742B2EBC74261EB5731E4
:101700000CFB0EF7B0EBC70072EB57720CFB08F73F
:1017100034BFA2EBC702B2EBC70261EB5771039F64
:101720004FEA816141EA921104EBCC044FEAD137D0
:101730004FEA826206FB07FC42EA90124FEA8060A1
:101740004FEA1C4C0CFB0BF7D21B03FB0CF761EBB5
:1017500007010CFB0EF7B0EB074072EB17420CFBD6
:1017600008F734BFA2EB0742B2EB074261EB174127
:101770004FEA8C554FEA910704EB9C2406FB07FCCB
:101780004FEA1C4C0CFB0BF7B0EBC74072EB573227
:1017900003FB0CF734BFA2EBC742B2EBC74261EBCD
:1017A00057310CFB0EF7B0EBC70072EB57720CFB16
:1017B00008F734BFA2EBC702B2EBC70261EB577167
:1017C00015EB4C254FEA816141EA92114FEA8262A2
:1017D0004FEAD13742EA901206FB07FC44F10004BD
:1017E0004FEA80604FEA1C4C0CFB0BF7D21B03FB4B
:1017F0000CF761EB07010CFB0EF7B0EB074072EB47
:1018000017420CFB08F734BFA2EB0742B2EB0742CA
:1018100061EB174115EB1C154FEA813141EA92410A
:101820004FEA823242EA90424FEA80304FEA0C7629
:1018300044F1000448EA03434EEA0B484FF0000E1F
:10184000B2EB080C71EB030724BF624639464EEB3E
:101850000E0E4FF0000B0018524149414BEB0B0BA1
:10186000B2EB080C71EB03077BF1000B24BF62465F
:1018700039464EEB0E0E4FF0000B00185241494115
:101880004BEB0B0BB2EB080C71EB03077BF1000B7E
:1018900024BF624639464EEB0E0E51EA020718BFCE
:1018A00046F0010616EB0E7655F1000254F10001E8
:1018B00003D5BDE88901BDE80088BDE88901BDE820
:1018C0000048B619524141EB0101A3F101037047F1
:1018D00080807F7E7D7C7B7A79787776767574736D
:1018E000727171706F6E6E6D6C6C6B6A6A6968682C
:1018F000676666656464636362616160605F5F5EC2
:101900005E5D5D5C5C5B5B5A5A5959585857575637
:10191000565555555454535352525251515050509C
:101920004F4F4F4E4E4D4D4D4C4C4C4B4B4B4A4AEE
:101930004A49494948484847474747464646454532
:10194000454444444443434343424242424141416B
:10195000002B9C4630D477002BD01CB54FEA3707BC
:1019600003B44FF010004FF01001BAF1000F06D091
:10197000BCF1000FDCBF40F0080040F008014FF060
:1019800000000FBCBDE810400BF1010BBBF1010FD3
:1019900008BF5FEA170722BF12F1010211F101012E
:1019A0004FF0004143F1000300F0004043EA000023
:1019B0007047F9D35708D0E746EA064613F1400FBF
:1019C0004FEA16461FDD13F1200FDFBF16430A460C
:1019D000002120335B42BED0C3F1200746EA064611
:1019E00002FA07F74FEA164646EA0706C3F1200750
:1019F00022FA03F201FA07F721FA03F14FF000038C
:101A000042EA0702A7E746EA020646EA06464FEA26
:101A1000164646EA0106BCBF46EA0646360C4FF0BB
:101A200000034FF000024FF0000194E72DE9804CD5
:101A30009A46934670B491E8380007C831EA400CE2
:101A400048BF34EA430C03D5FFF7E6FDFFF780FFFC
:101A5000F0BCBDE8008C2DE9804C9A46934670B4EA
:101A600091E8380007C810F0804F08BF13F0804F8E
:101A700003D100F005F8FFF76BFFF0BCBDE8008C68
:101A800020F07F4780EA030023F07F4C07EB0C0334
:101A9000A3F57C5300F00040A3F1FE0392F0000F89
:101AA00000F0B38095F0000F00F077802DE9014938
:101AB0004FEA11404FEA144621EA004800FB06FCB9
:101AC00024EA064708FB06F607FB08F800FB07F7C1
:101AD00018EB06484CEB164C4FEA124B18EB074834
:101AE0004FEA15464CEB174022EA0B4E0BFB06FC67
:101AF00025EA06470EFB06F607FB0EFE0BFB07F773
:101B00001EEB064E4CEB164C4FF000061EEB074E3C
:101B10004CEB174B18EB0B0840F1000018EB0E0BC9
:101B200058EB000840F100008F1A4FF000013CBF55
:101B3000C943661B14BFB5EB040C00213CBFC9436D
:101B4000F61B4FEA17444EEA8E0E27EA04454FEA89
:101B50001C4704FB07622CEA074C05FB07F70CFB4C
:101B600005F604FB0CFC16EB074642EB174216EB9E
:101B70000C4642EB1C421BEB060658EB02024141AD
:101B800046EA9E0601D5BDE80189B619524141EBEE
:101B90000101A3F10103BDE801894FEA14454FEAB1
:101BA000114724EA054621EA074C05FB07F406FB2A
:101BB00007F70CFB06F105FB0CFC11EB074144EBAE
:101BC00017444FEA124711EB0C4144EB1C4422EA44
:101BD000074C05FB07F206FB07F70CFB06F605FBB7
:101BE0000CFC16EB074642EB174216EB0C4642EB99
:101BF0001C456A1854F1000148BF7047B61952419C
:101C000041EB0101A3F10103704795F0000F37D0BC
:101C10004FEA11424FEA144721EA024624EA074CF0
:101C200002FB07F106FB07F70CFB06F402FB0CFCBA
:101C300014EB074441EB17414FEA154714EB0C44F2
:101C400041EB1C4125EA074C02FB07F506FB07F7B1
:101C50000CFB06F602FB0CFC16EB074645EB1745A2
:101C600016EB0C4645EB1C42121951F1000148BF1E
:101C70007047B619524141EB0101A3F101037047CE
:101C80004FEA14454FEA114724EA054621EA074C7A
:101C900005FB07F106FB07F70CFB06F24FF0000609
:101CA00005FB0CFC12EB074241EB174112EB0C4217
:101CB00051EB1C4148BF7047921841EB0101A3F161
:101CC0000103704721B1826842F00102826003E0A3
:101CD000826822F0010282607047000010B504465D
:101CE0001248844208D10121401500F0B5FE0021C0
:101CF000601500F0B1FE17E00D48844208D10121C3
:101D0000001500F0A9FE0021201500F0A5FE0BE053
:101D10000848844208D10121C80300F09DFE00213B
:101D20004FF4004000F098FE10BD00000024014078
:101D300000280140003C0140014600208A6802F072
:101D400004020AB1012000E0002070470146C86C7F
:101D500080B270470246002013680B400BB101208F
:101D600000E000207047000030B50246002000234C
:101D700050680F4C20400D790C6844EA052420433C
:101D8000506090680B4C2040D1E902542C434D79AF
:101D900044EA450420439060D06A20F470000C7C33
:101DA000641EE4B2234340EA0350D06230BD000019
:101DB000FFFEF0FFFDF7F1FFF0B504460D460020F1
:101DC0000021092D11DDE068A5F10A0606EB4607A2
:101DD000072606FA07F18843A5F10A0606EB460630
:101DE00003FA06F10843E0600CE0206905EB4507C3
:101DF000072606FA07F1884305EB450603FA06F1C4
:101E000008432061072A0FDA606B561E06EB86072F
:101E10001F2606FA07F18843561E06EB860605FACA
:101E200006F10843606322E00D2A0FDA206BD61F0B
:101E300006EB86071F2606FA07F18843D61F06EB36
:101E4000860605FA06F10843206310E0E06AA2F175
:101E50000D0606EB86071F2606FA07F18843A2F156
:101E60000D0606EB860605FA06F10843E062F0BDB2
:101E7000816841F008018160704721B1826842F4B5
:101E8000A002826003E0826822F4A00282607047B0
:101E9000816841F0040181607047000008B50121AC
:101EA000042000F0C9FD10208DF8030003208DF8F8
:101EB00002004FF48070ADF800006946044800F05D
:101EC000C7F94FF48071024800F04DFA08BD0000D8
:101ED0000008014000BFFEE710B500244FF4E130D8
:101EE00001F066F904460CB1204610BD142001F043
:101EF0009FFB01F0BFFA04460CB12046F5E7142021
:101F000001F096FB01F03CF904460CB12046ECE7E9
:101F1000142001F08DFB012001F06EFA04460CB193
:101F20002046E2E7142001F083FB1BA11EA001F074
:101F30004BF904460CB12046D7E7142001F078FB9A
:101F40001B491CA001F0FCF904460CB12046CCE76B
:101F5000142001F06DFB22A001F05EF904460CB1E3
:101F60002046C2E7142001F063FB2CA12DA001F054
:101F700077F904460CB12046B7E7142001F058FB6E
:101F8000374801F0BBF904460CB12046ADE71420F8
:101F900001F04EFB2046A8E76A696E67616932303E
:101FA0003033353400000000686F6E6F720000003F
:101FB000FC4B0008363835653166393764353832C0
:101FC0006632303031383335386262655F4861726D
:101FD000647761726544657669636530303100000D
:101FE00036383565316639376435383266323030E7
:101FF00031383335386262655F4861726477617287
:10200000654465766963653030315F305F305F32DB
:102010003032353036333030370000003138383325
:1020200000000000316531376165393738372E736C
:1020300074312E696F7464612D6465766963652EF1
:10204000636E2D6E6F7274682D342E6D79687561B4
:10205000776569636C6F75642E636F6D00000000B7
:10206000404C00082DE9F047002400F07BF80120E7
:102070002849086000202849C1F88C01142001F08B
:10208000D7FA00F059F800BF00BF22488038006836
:1020900018B1601C80B2041EF7D114B90020BDE84D
:1020A000F087002400BF1B488038006818B9601C06
:1020B00080B2041EF7D10CB90020F0E7002400BF65
:1020C00014488038006818B1601C80B2041EF7D133
:1020D0000CB90020E3E701F05DFB074601F05AFB75
:1020E000804601F057FB054601F054FB064601F01F
:1020F00051FB814607EB080028448119494507D167
:1021000006498F7081F803800D704E700120C6E77C
:102110000020C4E78C81214200802142440000203D
:1021200010B500F01FF80020024908704870887050
:10213000C87010BD4400002008B50121082000F03F
:102140007BFC0820ADF8000004208DF8030003207C
:102150008DF802006946024800F07AF808BD0000D8
:10216000000C014008B50121082000F065FC0820A2
:10217000ADF8000010208DF8030003208DF8020058
:102180006946024800F064F808BD0000000C0140F8
:102190007047014605E0002001E0421CD0B27B28D8
:1021A000FBDB0A1EA1F10101F5D170472DE9F047D3
:1021B00080461CA70FF2780939464046FEF7D2F94F
:1021C00004461CB94FF0FF30BDE8F0873846FEF7F3
:1021D000DBF9044499F800102046FEF7B9F90546EA
:1021E00015B94FF0FF30EFE72E1B402E00D33F26EE
:1021F000324621460F48FEF72FFA00200D49885538
:102200004FF400710C48FEF7DEF90A4A0BA10A48A8
:10221000FEF742F84FF4007207490C4800F0F6FD53
:102220000020D1E7726571756573745F69643D0064
:10223000220000004A0600204A04002072657175E1
:102240006573745F69643A25730D0A0000440040A9
:102250002DE9F0410246002500260020002300243D
:10226000002791F803C00CF00F0591F803C00CF0A3
:10227000100CBCF1000F03D091F802C04CEA050528
:1022800091F800C0BCF1000F31D0146800202BE0A1
:102290004FF0010C0CFA00F3B1F800C00CEA030691
:1022A0009E4220D183004FF00F0C0CFA03F7BC4381
:1022B00005FA03FC4CEA040491F803C0BCF1280FB2
:1022C00006D14FF0010C0CFA00FCC2F814C00AE071
:1022D00091F803C0BCF1480F05D14FF0010C0CFA86
:1022E00000FCC2F810C0401C0828D1D31460B1F81B
:1022F00000C0BCF1FF0F34DD546800202EE000F177
:10230000080C4FF0010808FA0CF3B1F800C00CEA11
:1023100003069E4221D183004FF00F0C0CFA03F705
:10232000BC4305FA03FC4CEA040491F803C0BCF179
:10233000280F05D100F1080C08FA0CF8C2F8148037
:1023400091F803C0BCF1480F07D100F1080C4FF021
:10235000010808FA0CF8C2F81080401C0828CED3F7
:102360005460BDE8F081416170470161704700BF72
:10237000FEE7000001464906084A926942F0010260
:10238000064B9A61064A526822F0E062044B5A609A
:102390001A4652680A435A60704700000010024013
:1023A0000000014008B50121082000F045FB102085
:1023B0008DF8030003208DF802004FF47040ADF853
:1023C000000069460448FFF743FF4FF4704102489C
:1023D000FFF7C9FF08BD0000000C014000B587B041
:1023E00001214FF4017000F027FB4FF4004000F092
:1023F00007FB0120ADF8180000208DF81B0006A98E
:102400001948FFF725FF1948FFF768FC00200190E5
:102410008DF808008DF809004FF46020039000202B
:10242000049001208DF8140001A91048FFF79CFCCE
:10243000002000F0E5FA01210C48FFF743FC0B48AF
:10244000FFF716FD00BF0948FFF776FC0028FAD118
:102450000648FFF71DFD00BF0448FFF76DFC00288C
:10246000FAD107B000BD000000080140002401407F
:1024700020B101280CD0022821D114E00021114AFA
:102480001160114AC2F884110E4A121D116016E043
:1024900001210C4A11600C4AC2F884110021094A3A
:1024A000121D11600BE00121064A11600021064A4D
:1024B000C2F884110121034A121D116000BF00BF40
:1024C00070470000A08121420080214208B501210F
:1024D000082000F0B1FA10208DF8030003208DF8D9
:1024E00002004FF48070ADF8000069461048FFF715
:1024F000AFFE4FF480710E48FFF735FF0220ADF8B4
:10250000000069460A48FFF7A3FE02210848FFF7CA
:102510002AFF4FF40070ADF8000069460448FFF749
:1025200097FE4FF400710248FFF71DFF08BD000041
:10253000000C014000BFFEE77047000070B50021AD
:1025400000230F22C47804B3154C246804F4E0641B
:10255000C4F5E064210AC1F10403CA40447804FAD6
:1025600003F184781440214309010E4C0678A155EB
:10257000047804F01F050124AC4005786D11AD000E
:1025800005F1E025C5F8004109E0047804F01F05D5
:102590000124AC40044D0678761145F8264070BD04
:1025A0000CED00E000E400E080E100E002490143BE
:1025B000024A1160704700000000FA050CED00E0CF
:1025C00030B5002418E004F1B000002100F0B5F9A6
:1025D0000021084600F0B1F90021102000F0ADF90B
:1025E000002505E00121002000F0A7F9681CC5B214
:1025F000802DF7DB601CC4B2082CE4DB30BD00008A
:102600000120064908600649C1F89C0100200349E1
:10261000091D08600249C1F898017047988121425C
:102620000080214201200549086000200449C1F8CA
:102630009C0101200149091D0860704798812142D1
:102640000080214201200349086000200249C1F8AE
:1026500098017047988121420080214208B50121EC
:10266000082000F0E9F910208DF8030003208DF810
:1026700002004020ADF8000069464148FFF7E8FD40
:1026800040213F48FFF771FE8020ADF80000694609
:102690003B48FFF7DDFD80213948FFF766FE4FF428
:1026A0009670FFF776FD0021AE2000F046F900217C
:1026B000084600F042F90021102000F03EF9002108
:1026C000402000F03AF90021B02000F036F9002156
:1026D000812000F032F90021FF2000F02EF90021C6
:1026E000A12000F02AF90021A62000F026F90021FF
:1026F000A82000F022F900213F2000F01EF900215F
:10270000C82000F01AF90021D32000F016F90021AA
:10271000084600F012F90021D52000F00EF9002142
:10272000802000F00AF90021D82000F006F90021ED
:10273000052000F002F90021D92000F0FEF8002168
:10274000F12000F0FAF80021DA2000F0F6F800217C
:10275000122000F0F2F80021DB2000F0EEF800215A
:10276000302000F0EAF800218D2000F0E6F800218A
:10277000142000F0E2F80021AF2000F0DEF808BDE0
:10278000000C014030B504460D4605F1B0000021B3
:1027900000F0D3F8102141EA1410002100F0CDF828
:1027A00004F00F00002100F0C8F830BD2DE9F0431F
:1027B00081460F4616464FF0000800240FE030789F
:1027C0002249095D884206D17178204A601C105C5C
:1027D000814200D105E0601CC4B2601CC4B2FF2C71
:1027E000EDDB00BF204604EBD071C1F3470439464E
:1027F0004846FFF7C7FF00250CE0154901EB4411DF
:10280000485D012100F099F808F1010000F0FF088F
:10281000681CC5B2102DF0DB781CC1B24846FFF72A
:10282000B1FF00250EE00A4901EB441205F1100149
:10283000505C012100F081F808F1010000F0FF0870
:10284000681CC5B2102DEEDBBDE8F083184A000805
:10285000B84400082DE9F04307460E4690469946D5
:1028600000250024A8F12000C5B27F2F02DD00273B
:10287000B01CC6B2B9F1100F24D131463846FFF76B
:1028800081FF002408E004EB0511194A505C012186
:1028900000F053F8601CC4B2082CF4DB701CC1B209
:1028A0003846FFF76FFF002409E004EB05110831FB
:1028B0000F4A505C012100F040F8601CC4B2082CA3
:1028C000F3DB12E031463846FFF75CFF00240AE0F4
:1028D00005EB4501074A02EB4101085D012100F0CB
:1028E0002CF8601CC4B2062CF2DBBDE8F0830000BB
:1028F000C83E0008A03C0008F0B505460E46144648
:10290000002716E06FB92078802801DD012710E04C
:102910002278F1B2E8B21023FFF79CFF0835641C5F
:1029200007E00027F1B2E8B22246FFF73FFFA41C00
:10293000103520780028E5D1F0BD30B504460D46AD
:102940001DB1E0B200F044F802E0E0B200F02AF875
:1029500030BD000030B50146084600240F4D2C6004
:10296000002318E0024602F08002802A04D10124EC
:102970000A4D2D1D2C6003E00024084D2D1D2C60F8
:102980004406200E0124054D2C600024044DC5F89A
:1029900098415C1CE3B2082BE4DB30BD98812142F6
:1029A0000080214210B50446FFF72AFE7820FFF789
:1029B000D1FFFFF747FE0020FFF7CCFFFFF742FEF5
:1029C0002046FFF7C7FFFFF73DFEFFF72BFE10BDC8
:1029D00010B50446FFF714FE7820FFF7BBFFFFF7A2
:1029E00031FE4020FFF7B6FFFFF72CFE2046FFF731
:1029F000B1FFFFF727FEFFF715FE10BD704700007F
:102A000001460020034A506820F4404008435060CB
:102A1000704700000010024029B1064AD269024303
:102A2000044BDA6104E0034AD2698243014BDA6164
:102A3000704700000010024029B1064A9269024323
:102A4000044B9A6104E0034A92698243014B9A6104
:102A5000704700000010024029B1064AD2680243C4
:102A6000044BDA6004E0034AD2688243014BDA6027
:102A7000704700000010024030B500210022002401
:102A800000232D4D6D6805F00C0121B1042905D0FE
:102A9000082923D105E0294D056022E0274D056076
:102AA0001FE0254D6D6805F47012234D6D6805F427
:102AB0008034022505EB92421CB9214D5543056037
:102AC0000BE01D4D6D6805F400351DB11C4D5543DF
:102AD000056002E0194D5543056002E0174D0560A1
:102AE00000BF00BF144D6D6805F0F0010909154DD8
:102AF0006B5C0568DD4045600F4D6D6805F4E06175
:102B0000090A104D6B5C4568DD4085600A4D6D68B3
:102B100005F46051C90A0B4D6B5C4568DD40C5602A
:102B2000054D6D6805F44041890B074D6B5CC56828
:102B3000B5FBF3F5056130BD0010024000127A00CC
:102B400000093D00140000202400002010B50446B8
:102B50000723012221460948FFF72EF901210748E2
:102B6000FFF78BF900BF02210448FFF7F3F80028B4
:102B7000F9D00248FFF7EAF810BD00000024014038
:102B800010B5C2B04FF4807102A8FDF73EFD1048A9
:102B9000104B11A24FF48071009002A8FDF792FB38
:102BA0004FF400710E48FDF70EFD02AA0DA10C486E
:102BB000FDF772FB4FF4007209490F4800F026F947
:102BC0000EA102A800F072FB0446204642B010BDE0
:102BD0004A0600206C4B0008257325730000000096
:102BE0004A040020726573706F6E736520746F7095
:102BF00069633A25730D0A00004400407B5C227231
:102C00006573756C745F636F64655C223A205C2247
:102C1000305C227D00000000704710B500F002F823
:102C200010BD00000CB500200190009033480068F2
:102C300040F480303149086000BF3048006800F43B
:102C4000003000900198401C0190009818B901983C
:102C5000B0F5A06FF1D12948006800F4003010B140
:102C60000120009001E0002000900098012843D14D
:102C70002348006840F010002149086008460068B9
:102C800020F0030008600846006840F00200086079
:102C90001A48406819494860084640684860084634
:102CA000406840F4806048600846406820F47C102A
:102CB00048600846406840F4E810486008460068EC
:102CC00040F08070086000BF0C48006800F00070A1
:102CD0000028F9D00948406820F0030007494860FF
:102CE0000846406840F00200486000BF0348406862
:102CF00000F00C000828F9D10CBD000000100240C3
:102D000000200240042808D14FF0E021096941F079
:102D100004014FF0E022116107E04FF0E021096962
:102D200021F004014FF0E02211617047704700006C
:102D300010B51348006840F00100114908600846CA
:102D40004068104908400E494860084600680E492E
:102D500008400B4908600846006820F4802008609D
:102D60000846406820F4FE0048604FF41F00886069
:102D7000FFF753FF4FF000600449086010BD0000EA
:102D8000001002400000FFF8FFFFF6FE08ED00E033
:102D900010B50421080700F028F840B10421080705
:102DA00000F020F80C480068401C0B490860012125
:102DB000880700F01AF868B10121880700F012F8BE
:102DC0000548006805490860012005490870002091
:102DD0000149086010BD0000540000204C00002094
:102DE00050000020CA430282704730B502460020DE
:102DF00000230024158A05EA0103958905EA0104E8
:102E000013B10CB1012000E0002030BD0AE000BF8A
:102E1000038803F04003002BFAD00B788380491C11
:102E2000531E9AB2002AF2DC7047000010B5202130
:102E30002E4800F0BBF8D8B32C4800F07FF9C4B29C
:102E40002B48B0F80002C0F30E00B0F5FF7F12DC93
:102E50002748B0F80002C0F30E0025490C5408467C
:102E6000B0F80002401CB1F8001260F30E012048D7
:102E7000A0F8001218E01E48B0F800026FF30E0030
:102E80001B49A1F800020846B0F80002C0F30E008A
:102E90000C540846B0F80002401CB1F8001260F370
:102EA0000E011348A0F800122021104800F05AF833
:102EB00010210E4800F07AF8B0B10D48B0F80002C9
:102EC00020F4004000F500400949A1F8000207483D
:102ED00000880648001D00880846B0F80002C0F3CC
:102EE0000E020448FFF792FF10BD000000380140B9
:102EF000480100200044004010B540F2255116481A
:102F000000F061F838B3144800F018F9C4B213485F
:102F1000008800F40040C8B90D2C06D10F48008885
:102F200040F440400D49088010E00C480088C0F390
:102F30000D000B490C5409480088401C07490880C3
:102F400008460088C72801DD0020088040F225518E
:102F5000014800F010F810BD004400404800002077
:102F60008000002001F40072B2F5007F00D100BFA4
:102F7000CA430280704710B50022002340F66A144D
:102F8000A14200D100BF0A1201249440A3B2DC4345
:102F9000048010BD21B1828942F40052828104E094
:102FA00082894DF6FF731A408281704702460020E5
:102FB000B1F5007F00D100BF13880B400BB1012099
:102FC00000E00020704770B5024600240023002571
:102FD000002040F66A16B14200D100BFC1F342158D
:102FE00001F01F03012606FA03F3012D02D1968991
:102FF000334006E0022D02D1168A334001E0968A62
:1030000033400C12012606FA04F41688344013B13A
:103010000CB1012000E0002070BDF0B50346002493
:1030200000260025002040F66A17B94200D100BFF3
:103030001846C1F3421401F01F06012707FA06F5EE
:10304000012C01D10C3004E0022C01D1103000E041
:1030500014301AB107682F43076002E00768AF43D6
:103060000760F0BD2DE9F04786B005460E46002406
:10307000A24600BFA1460027B08900B100BF2F467D
:103080002C8A4CF6FF700440F08804432C82AC89F3
:103090004EF6F3100440B088318908437189084323
:1030A0000443AC81AC8A4FF6FF400440B08904432E
:1030B000AC8201A8FFF7E0FC1F48874202D1DDF88F
:1030C00010A001E0DDF80CA0A88900F4004040B198
:1030D0000AEBCA0000EB0A1031684900B0FBF1F8B6
:1030E00007E00AEBCA0000EB0A1031688900B0FB68
:1030F000F1F86420B8FBF0F004012009642101FB21
:103100001089A88900F4004040B1322000EBC900CA
:10311000B0FBF1F000F00700044308E0322000EBC0
:1031200009106421B0FBF1F000F00F0004432C8182
:1031300006B0BDE8F08700000038014001468888ED
:10314000C0F30800704700BFFEE7490050EAC12005
:1031500018BF04204A0D18BF40F0010040F2FF7272
:10316000B2EB515F08BF40F00200012808BF052004
:10317000704730380A2801D201207047002070477C
:1031800070B500250BE04FF4FA7207A107A000F01C
:1031900007F904460CB9002070BD681CC5B20A2DA1
:1031A000F1DB0120F8E700004F4B00004154000024
:1031B00010B50446204600F071F9FFF7E1FF08B1B1
:1031C000012010BD0020FCE770B5C0B004460D46DC
:1031D0002B46224608A16846FDF75EF842F21072BF
:1031E0000AA1684600F0DCF8064616B9002040B097
:1031F00070BD0120FBE7000041542B43574A41506A
:103200003D222573222C222573220000574946496E
:1032100020474F542049500030B5C1B004462246E3
:1032200008A101A8FDF738F841F288320BA101A8E6
:1032300000F0B6F8054615B9002041B030BD0120B8
:10324000FBE7000041542B4D515454434C49454E2B
:103250005449443D302C2225732200004F4B00007E
:1032600070B5C0B004460D462B46224608A16846FC
:10327000FDF712F840F6B8320BA1684600F090F85E
:10328000064616B9002040B070BD0120FBE70000E3
:1032900041542B4D515454434F4E4E3D302C22251A
:1032A00073222C25732C31004F4B000070B5C0B039
:1032B00004460D462B46224608A16846FCF7ECFF63
:1032C00040F6B8320CA1684600F06AF8064616B916
:1032D000002040B070BD0120FBE7000041542B4DA1
:1032E0005154545055423D302C222573222C222516
:1032F00073222C312C3000004F4B000030B5C1B090
:103300000446224608A101A8FCF7C6FF40F6B832E1
:103310000AA101A800F044F8054615B9002041B003
:1033200030BD0120FBE7000041542B4D5154545354
:1033300055423D302C222573222C31004F4B00008A
:1033400070B5C0B004460D462B46224608A168461B
:10335000FCF7A2FF41F2883210A1684600F020F885
:10336000064616B9002040B070BD0120FBE7000002
:1033700041542B4D515454555345524346473D30CB
:103380002C312C224E554C4C222C222573222C22DF
:103390002573222C302C302C222200004F4B0000B1
:1033A0002DE9F04105460E461446002700F0FEF8D0
:1033B00029460FA000F0C8F806B114B90020BDE8F6
:1033C000F08110E000F0DCF8074647B1314638469E
:1033D000FDF7C8F808B10020F1E700F0E7F8641E37
:1033E000012000F025F9002CECD10220E7E70000D5
:1033F00025730D0A0000000070B50546012D04D0AC
:10340000022D0AD0032D18D10FE04FF4FA720FA14C
:103410000FA0FFF7C5FF044611E04FF4FA720BA1AD
:103420000EA0FFF7BDFF044609E04FF4FA7207A1B2
:103430000DA0FFF7B5FF044601E0032070BD00BFFB
:103440000CB90020FAE70120F8E700004F4B00001C
:1034500041542B43574D4F44453D310041542B437C
:10346000574D4F44453D320041542B43574D4F4437
:10347000453D330010B54FF4FA7205A105A0FFF7E2
:103480008FFF04460CB9002010BD0120FCE70000AE
:103490004F4B000041542B525354000010B586B0DE
:1034A0000446012144F20400FFF7C6FA4FF400700D
:1034B000ADF8140003208DF8160018208DF81700C1
:1034C00005A91F48FEF7C4FE4FF48060ADF8140054
:1034D00004208DF8170005A91948FEF7B9FE0194DC
:1034E0000020ADF80800ADF80A00ADF80C00ADF80A
:1034F00010000C20ADF80E0001A91248FFF7B2FD34
:10350000012240F225510F48FFF787FD012240F2CA
:1035100024410C48FFF781FD01210A48FFF73AFDDD
:1035200025208DF8000000208DF801008DF80200A4
:1035300001208DF803006846FFF700F806B010BDC3
:1035400000080140003801400FB438B505A80090CC
:103550000948009A0499FCF78DFE00200090064867
:10356000FDF712F884B2224603490448FFF74EFCE7
:1035700038BC5DF814FB00004A030020003801400D
:103580000948B0F800020121B1EBD03F09D1002079
:103590000549B1F80012C1F30E01034A5054104618
:1035A00070470020FCE70000480100200748B0F801
:1035B00000026FF30E000549A1F800020846B0F8BA
:1035C000000220F40040A1F80002704748010020EA
:1035D00070B5044604A12046FCF7C4FF05460DB9AA
:1035E000002070BD0120FCE72B4D5154545355422F
:1035F000524543563A30000010B50420FFF782FBD5
:10360000074800680749B0FBF1F007490870084611
:1036100000784FF47A7148430449086010BD0000F7
:103620000000002040420F003C000020400000202D
:1036300030B50146C82491FBF4F4A3B2002226E081
:103640002C4C2468C8256C434FF0E0256C610024A5
:10365000AC612C46246944F001042C612C46A0691D
:1036600000BF4FF0E024206900F001041CB100F419
:103670008034002CF5D04FF0E024246924F00104BC
:103680004FF0E0252C610024AC61541CE2B29A4258
:10369000D6DBC82491FBF4F504FB151444B3C8240D
:1036A00091FBF4F504FB1514124D2D686C434FF09B
:1036B000E0256C610024AC612C46246944F00104CF
:1036C0002C612C46A06900BF4FF0E024206900F077
:1036D00001041CB100F48034002CF5D04FF0E0243C
:1036E000246924F001044FF0E0252C610024AC6132
:1036F00030BD0000400000200146124A12784A43C3
:103700004FF0E0235A6100229A611A46126942F092
:1037100001021A611A46906900BF4FF0E022106959
:1037200000F001021AB100F48032002AF5D04FF007
:10373000E022126922F001024FF0E0231A61002218
:103740009A6170473C00002010B5002404E0601C22
:10375000C4B20120FFF7D0FF0D48006808B1642C07
:10376000F5DB002404E0601CC4B20120FFF7C4FFB5
:103770000748006808B9642CF5DB2820FFF7BCFF78
:103780000348006808B1012010BD0020FCE70000DC
:103790000C81214270B50024002506E06006040E6D
:1037A000FFF7D2FF0443681CC5B2082DF6DB2046A4
:1037B00070BD00002DE9F34F8DB088460D98FEF7DF
:1037C000F5FC834634216846FCF71FFF3EA10D98A7
:1037D000FCF7C8FE0546FDB142463EA16846FCF72F
:1037E0005BFD69462846FCF7BDFE054635BB4FF438
:1037F00000713A48FCF7E7FE424639A13748FCF72A
:103800004BFD4FF4007235493A48FFF7FFFA4FF08D
:10381000FF300FB0BDE8F08F4FF400712F48FCF778
:10382000D2FE35A12D48FCF737FD4FF400722B492D
:103830003048FFF7EBFA4FF0FF30EAE76846FCF755
:10384000A3FE05442C212846FCF782FE06467D2176
:103850002846FCF77DFE04464FF0000936B12CB136
:10386000A64201D9A14608E0B14606E016B10CB95E
:10387000B14602E00EB904B1A146A9EB050A002742
:10388000002007E02978303907EB870201EB420777
:103890006D1C401C5045F5D34FF400710F48FCF7E8
:1038A00092FE3B4642461AA10C48FCF7F5FC4FF449
:1038B00000720A490F48FFF7A9FABBF1000F01D1C6
:1038C000FFF75EF93846A4E7227061726173223A0D
:1038D00000000000222573223A0000004A04002064
:1038E0003C25733E206973206E6F20657869737480
:1038F0000D0A0000004400403C70617261733E207C
:103900006973206E6F2065786973740D0A0000007A
:1039100025733A25640D0A004FF4A060FEF746FEB9
:103920000120FEF727FDFFF767FEFEF7B7FA002438
:10393000FEF794FEFEF744FEFEF7F2FB4FF4E13093
:1039400000F02AF9C820FFF773FEFEF7C5FAFEF76C
:1039500045FDFEF7BBFDFEF725FD90E0002C66D18E
:103960003224FEF77FFB012861D10020FFF7EEF83B
:103970004349088043488378027843A14548FCF7CF
:103980008BFC444A00210846FEF7B6FF3C480288FB
:1039900041A14448FCF780FC424A02210020FEF786
:1039A000ABFF3848027840A141A000F0B7F83220C0
:1039B000FFF73EFE324802884CA13DA000F0AEF871
:1039C0003220FFF735FE2F4882784AA138A000F058
:1039D000A5F83220FFF72CFE4748027847A134A013
:1039E00000F09CF83220FFF723FE464846A102680B
:1039F0002FA000F093F83220FFF71AFE214800783C
:103A000043490978884205DC1E4880784049097896
:103A1000884206DD00203F490860012036490870D1
:103A200005E001203B490860002033490870641E0E
:103A30003220FFF7FDFDFFF7A3FD37490860084678
:103A40000068E0B108460068FFF7C2FDA8B12EA1EA
:103A500031480068FFF7AEFE2A4908600846006852
:103A600038B108460068012803D0084600680228DB
:103A700003D124480068FEF7FBFCFFF797FD6DE7D4
:103A80003400002044000020543A256420483A25A0
:103A900064202000580000204C696768743D25644C
:103AA000202000006C00002054454D500000000014
:103AB000246F632F646576696365732F36383565C7
:103AC0003166393764353832663230303138333523
:103AD000386262652F7379732F70726F70657274BC
:103AE0006965732F7265706F727400004C494748A6
:103AF0005400000048554D00380000207761726E78
:103B0000696E6700300000204D4F544F5200000096
:103B100036000020B081214228000020F0B5A1B07D
:103B200007460C461546802101A8FCF76EFD23468A
:103B30000EA2114901A80095FCF7AEFB01A9384679
:103B4000FFF7B4FB06464FF400710C48FCF73BFD51
:103B500001AA0BA10948FCF79FFB4FF4007207492B
:103B60000C48FFF753F9304621B0F0BD6465766923
:103B70006365303031000000B44B00084A04002077
:103B8000736574506172616D73496E743A25730D7B
:103B90000A0000000044004010B586B00446012130
:103BA0000520FEF749FF01214804FEF735FF1820E4
:103BB0008DF817000420ADF8140003208DF81600CE
:103BC00005A91D48FEF744FB04208DF817000820C6
:103BD000ADF8140003208DF8160005A91648FEF76D
:103BE00037FB01940020ADF80800ADF80A00ADF8ED
:103BF0000C00ADF810000C20ADF80E0001A90F4824
:103C0000FFF730FA012240F225510C48FFF705FA80
:103C100001210A48FFF7BEF926208DF80000022096
:103C20008DF801008DF8020001208DF80300684630
:103C3000FEF784FC06B010BD0008014000440040BF
:103C400010B500290AD00878002807D00548784424
:103C5000FDF730FC002801D0002010BD0248784458
:103C600010BD00005E1000005610000010B50029C5
:103C70000AD00878002807D005487844FDF71AFCD8
:103C8000002801D0002010BD0248784410BD00007B
:103C90004E10000046100000FDF72EB8FDF762B987
:103CA0000000000000000000002F000000000700DE
:103CB000070000147F147F1400242A7F2A12006258
:103CC0006408132300364955225000000503000004
:103CD00000001C224100000041221C000014083E8C
:103CE00008140008083E0808000000A06000000852
:103CF00008080808000060600000002010080402A6
:103D0000003E5149453E0000427F40000042615163
:103D10004946002141454B31001814127F100027FD
:103D200045454539003C4A494930000171090503C0
:103D300000364949493600064949291E00003636F1
:103D40000000000056360000000814224100001454
:103D50001414141400004122140800020151090631
:103D600000324959513E007C1211127C007F4949B2
:103D70004936003E41414122007F4141221C007FE3
:103D800049494941007F09090901003E4149497AF1
:103D9000007F0808087F0000417F4100002040416B
:103DA0003F01007F08142241007F40404040007FD7
:103DB000020C027F007F0408107F003E4141413E1B
:103DC000007F09090906003E4151215E007F091963
:103DD00029460046494949310001017F0101003F60
:103DE0004040403F001F2040201F003F4038403FE0
:103DF0000063140814630007087008070061514944
:103E0000454300007F41410000552A552A550000D6
:103E100041417F0000040201020400404040404054
:103E2000000001020400002054545478007F4844EC
:103E3000443800384444442000384444487F003823
:103E40005454541800087E0901020018A4A4A47C4C
:103E5000007F080404780000447D40000040808416
:103E60007D00007F102844000000417F4000007C5E
:103E700004180478007C080404780038444444386A
:103E800000FC242424180018242418FC007C0804B6
:103E9000040800485454542000043F444020003C8F
:103EA0004040207C001C2040201C003C4030403C16
:103EB000004428102844001CA0A0A07C00446454A6
:103EC0004C441414141414140000000000000000EA
:103ED0000000000000000000000000F800000000EA
:103EE000000000333000000000100C06100C06002B
:103EF000000000000000000040C07840C078400092
:103F0000043F04043F040400007088FC08300000F3
:103F1000001820FF211E0000F008F000E01800004B
:103F200000211C031E211E0000F008887000000004
:103F30001E2123241927211010160E000000000056
:103F40000000000000000000000000E01804020073
:103F5000000000071820400000020418E0000000E4
:103F60000040201807000000404080F080404000E2
:103F70000202010F01020200000000F00000000038
:103F80000101011F0101010000000000000000000C
:103F900080B0700000000000000000000000000081
:103FA000000101010101010100000000000000000A
:103FB00000303000000000000000000080601804A5
:103FC000006018060100000000E010080810E00082
:103FD000000F102020100F00001010F8000000004B
:103FE0000020203F20200000007008080888700092
:103FF0000030282422213000003008888848300012
:104000000018202020110E000000C02010F8000031
:1040100000070424243F240000F8088888080800CA
:104020000019212020110E0000E0108888180000DF
:10403000000F112020110E0000380808C8380800B1
:104040000000003F00000000007088080888700031
:10405000001C222121221C0000E010080810E000B2
:104060000000312222110F00000000C0C00000003B
:104070000000003030000000000000800000000060
:104080000000806000000000000080402010080058
:104090000001020408102000404040404040400021
:1040A00004040404040404000008102040800000FC
:1040B0000020100804020100007048080808F00001
:1040C0000000003036010000C030C828E810E000D1
:1040D0000718272423140B000000C038E00000005C
:1040E000203C23020227382008F8888888700000C6
:1040F000203F202020110E00C0300808080838009A
:10410000071820202010080008F808080810E00010
:10411000203F202020100F0008F88888E8081000B1
:10412000203F20202320180008F88888E808100085
:10413000203F200003000000C030080808380000BD
:1041400007182020221E020008F808000008F808BE
:10415000203F210101213F20000808F80808000045
:104160000020203F2020000000000808F808080078
:10417000C08080807F00000008F888C028180800F0
:10418000203F20012638200008F808000000000029
:10419000203F20202020300008F8F800F8F8080020
:1041A000203F003F003F200008F830C00008F8081A
:1041B000203F200007183F00E01008080810E0002A
:1041C0000F10202020100F0008F808080808F00041
:1041D000203F210101010000E01008080810E00064
:1041E0000F18242438504F0008F8888888887000F9
:1041F000203F2000030C3020007088080808380099
:104200000038202121221C00180808F8080818008E
:104210000000203F2000000008F808000008F8080F
:10422000001F202020201F000878880000C83808C0
:10423000000007380E010000F80800F80008F80038
:10424000033C0700073C03000818688080681808D2
:1042500020302C03032C30200838C800C838080050
:104260000000203F2000000010080808C83808009F
:104270002038262120201800000000FE0202020043
:104280000000007F40404000000C30C000000000F3
:10429000000000010638C00000020202FE0000001B
:1042A000004040407F0000000000040202020400C1
:1042B00000000000000000000000000000000000FE
:1042C00080808080808080800002020400000000E6
:1042D00000000000000000000000808080800000DE
:1042E0000019242222223F2008F8008080000000CC
:1042F000003F112020110E0000000080808000008F
:10430000000E112020201100000000808088F8009D
:10431000000E112020103F200000808080800000CF
:10432000001F222222221300008080F08888881833
:104330000020203F2020000000008080808080003E
:10434000006B94949493600008F8008080800000D3
:10435000203F210000203F200080989800000000AE
:104360000020203F202000000000008098980000DE
:1043700000C08080807F000008F8000080808000FE
:10438000203F24022D302000000808F80000000023
:104390000020203F202000008080808080808000DE
:1043A000203F20003F20003F808000808080000070
:1043B000203F210000203F200000808080800000FE
:1043C000001F202020201F0080800080800000002F
:1043D00080FFA12020110E0000000080808080005E
:1043E000000E112020A0FF8080808000808080004F
:1043F00020203F212000010000008080808080007C
:104400000033242424241900008080E080800000F0
:104410000000001F2020000080800000008080003D
:10442000001F202020103F2080808000008080809E
:1044300000010E300806010080800080008080802E
:104440000F300C030C300F00008080008080800053
:104450000020312E0E31200080808000008080807E
:1044600080818E701806010000808080808080002E
:104470000021302C2221300000000000807C02024C
:1044800000000000003F404000000000FF0000006E
:1044900000000000FF0000000002027C800000001D
:1044A0000040403F00000000000601010202040439
:1044B0000000000000000000003E22E2223E00FE5C
:1044C0002222222222E20200203F201F1111007F1F
:1044D0004444444444474000040404F484D4A5A65E
:1044E000A4D484F40404040000FE0202123A161359
:1044F000121A3242827E000040484848FF48484233
:10450000A29E82A2C2BE000080601F207F44444061
:104510004F484848484F40000414D454545454DF82
:1045200054545454D414040080601F020202020345
:1045300002020202030000001060020CC000F888B2
:104540008888FF8888A8180004047C0380601F8086
:10455000432C10284681800000F808FF08F880905E
:104560004C57A4544C8480002063211F1139101033
:104570001515FF151510100000FC0404FC0000FCCC
:104580000416650484FC0000000F04040F001013DF
:104590001212125292423E0080809E9292929EE0AF
:1045A000809EB2D2929E80000808F4949292F1000C
:1045B00001F2929494F808000000F888888888FF37
:1045C00088888888F800000000001F080808087F15
:1045D000888888889F80F0001010D0FF901000FE1F
:1045E000020202FE00000000040300FF0083601FBF
:1045F0000000003F40407800404042CC0004F4946A
:1046000094FF9494F40400000040201F204844428A
:10461000415F4142444840000000FC242424FC2522
:104620002624FC242424040040308F80844C55250B
:104630002525554C80808000000202C2020202FE45
:1046400082828282820200004040407F4040407F60
:1046500040404040404040000000FC2424E424242A
:10466000222222A36200000040308F8040402314A9
:104670000814224140808000C8B88FE888884048EC
:1046800048E85F4848484000081808FF0404000252
:104690000B1222D20A0600001060028C0000FE926B
:1046A00092929292FE00000004047E01407E4242FB
:1046B0007E427E42427E40000000FE028282828272
:1046C000FA8282828282020080601F404040404025
:1046D0007F4040445840400000000000000000FFC0
:1046E00008080808080808000000FF41414141414E
:1046F00041414141FF000000100C44241404050610
:104700000404142444140C00004040414141417F02
:1047100041414141404000000000FE404040400017
:10472000FF8040201008000000007F2020101000B3
:104730003F40404040407800407C407F484840F245
:10474000121AD61212F20200908E404F201E804F95
:1047500020180710204F80000014A4442434AD66B4
:1047600024940444A414000008090808090909FD58
:1047700009090B0808090800101010FF109000FE2E
:1047800082828292A29E00000444827F010000FF88
:1047900080432C102C43800012EAAFAAEA0FFA02E1
:1047A000888C5724548C84000202EAAAAAABAAABD4
:1047B000AAAAAAAAEA02020020202020202020FF84
:1047C000202020202020200080804020100C03008A
:1047D000030C1020408080000000F010101010FF2B
:1047E00010101010F000000000000F04040404FF7B
:1047F000040404040F000000000000E0000000FFBB
:104800000000002040800000080403000040807F7A
:104810000000000000010E0004040404F4949596C6
:104820009494F4040404040000FE02027A4A4A4A02
:104830004A4A7A0282FE0000008060F80700FC8489
:104840008484FE8283828000010000FF0000FF401C
:104850002000418E3040F800404042CC001092923F
:1048600092FF9191911010000040201F20405F485E
:10487000484848485F404000100C04E424242526A2
:10488000242424E404140C004040407F4949494951
:104890004949497F40404000404042CC0008488898
:1048A000080808FF080808000040201F2040404179
:1048B0004048504F404040001010D0FF901002027E
:1048C000FE0202625AC60000040300FF0043308F5C
:1048D00080432C102C438000404042CC0004F494D0
:1048E00094FF9494F40400000040201F20484442A8
:1048F000415F4142444840000202020202020202B9
:1049000002FE40A0100800000000000000000000AF
:1049100000030C102142F0000008884828180FE816
:10492000080808080808000008080909090909FF1B
:104930000909090909080800404042CC0040A09E2E
:104940008282829EA02020000000003F9088404389
:104950002C10284641808000404042CC004040401E
:1049600040FF4040404040000000007F2010000019
:1049700000FF0000000000000000FE1292B2D29280
:104980009292D2B29E00000040300F0484641F0453
:104990000404FF0404040000000202FAAAAFAAAA59
:1049A000AAAFAAFA0202000012120A7E0A0B0AFE3D
:1049B0000A2A4A3E0A12120000FE2222FE00404845
:1049C000C809FAE440201000807F0282FF20100C0A
:1049D00043807F000718200000020CC000F0101078
:1049E00010FF101010F0000002027F00000F0404FE
:1049F00004FF0404040F0000C8B88FE8888840480A
:104A000048E85F4848484000081808FF04040002CE
:104A10000B1222D20A060000BEE0C0EBB3ACC9F90B
:104A2000B2A8B7E4C3F9C6F7B5E7BBFACBD9B6C8A5
:104A3000D5FDB7B4D7AACEC2D1B9D5BCBFD5B1C800
:104A4000C6B5C2CAB1A8BEAFB4F3D6D0D0A1B8DF44
:104A5000B5CDCACAD2CBB9FDBCABCBD9B7C9B3B5FA
:104A6000C9E8BCC6C6C1C4BBC2F6B3E5D7AA000438
:104A7000000008000000000000000200010000101B
:104A8000000000000000000030313233343536378A
:104A90003839414243444546403058003031323382
:104AA0003435363738396162636465664030780082
:104AB0003031323334353637383961626364656694
:104AC000787000303132333435363738394142432B
:104AD000444546585000000002400000000000A07D
:104AE0000000000005400000000000C800000000B9
:104AF0000C4000000000409C000000001940000035
:104B00000020BCBE0000000034400000BFC91B8E66
:104B100000000004B5400000504BCFD06607E2CF44
:104B2000010000006C4100003E8251AADFEEA73474
:104B300001000000D9420000DCB5A0E23A301F9726
:104B4000FFFFFFFFB4450000FD25A0C8E9A3C14F4A
:104B5000FFFFFFFFFF3F000000000080000000009B
:104B6000FF3F00000000008000000000246F632F62
:104B7000646576696365732F363835653166393714
:104B800064353832663230303138333538626265F8
:104B90002F7379732F636F6D6D616E64732F726500
:104BA00073706F6E73652F726571756573745F696D
:104BB000643D00007B5C2273657276696365735C9B
:104BC000223A205B7B5C22736572766963655F695C
:104BD000645C223A205C2225735C225C2C5C22708F
:104BE000726F706572746965735C223A7B5C222512
:104BF000735C223A25647D7D5D7D000061366138FD
:104C000035333137356330393936653838386536BC
:104C10003464616237656539356265366363643271
:104C200066666465343863366331393538633936DE
:104C300037346437333334623132363200000000A7
:104C4000246F632F646576696365732F3638356525
:104C50003166393764353832663230303138333581
:104C6000386262652F7379732F636F6D6D616E6447
:104C7000732F726571756573745F69643D7B7265CE
:104C800071756573745F69647D000000D84D00081C
:104C9000000000205800000028010008304E0008E5
:104CA00058000020980C0000440100081C0000007F
:104CB00043000000F8FFFFFF0C0000000E000000A2
:104CC0000F0000002E000000100100004300000053
:104CD000F8FFFFFF0040404040404040404041411D
:104CE00041414140404040404040404040404040C1
:104CF000404040404005020202020202020202025B
:104D00000202020202202020202020202020200257
:104D100002020202020290909090909010101010E7
:104D20001010101010101010101010101010101083
:104D30000202020202028888888888880808080817
:104D400008080808080808080808080808080808E3
:104D5000020202024000000000000000000000000B
:104D60000000000000000000000000000000000043
:104D70000000000000000000000000000000000033
:104D80000000000000000000000000000000000023
:104D90000000000000000000000000000000000013
:104DA0000000000000000000000000000000000003
:104DB00000000000000000000000000000000000F3
:104DC00000000000000000000000000000000000E3
:104DD000000000000000000000A24A0400000000E3
:104DE000000000000102030406070809000000009B
:104DF000010203040102030406070809020406086D
:104E00000000000000000000000000000000194643
:104E10000000000000000000000000000000000092
:104E20000000000000000000000000000000000082
:04000005080000ED02
:00000001FF
